{
  "_format": "hh-sol-artifact-1",
  "contractName": "Governor",
  "sourceName": "contracts/Governor.sol",
  "abi": [
    {
      "inputs": [],
      "stateMutability": "nonpayable",
      "type": "constructor"
    },
    {
      "inputs": [
        {
          "internalType": "string",
          "name": "_proposalName",
          "type": "string"
        },
        {
          "internalType": "uint256",
          "name": "_deadline",
          "type": "uint256"
        },
        {
          "internalType": "uint16",
          "name": "_votesRequired",
          "type": "uint16"
        }
      ],
      "name": "createProposal",
      "outputs": [],
      "stateMutability": "nonpayable",
      "type": "function"
    },
    {
      "inputs": [
        {
          "internalType": "address",
          "name": "_proposlaAddr",
          "type": "address"
        }
      ],
      "name": "setProposalAddress",
      "outputs": [],
      "stateMutability": "nonpayable",
      "type": "function"
    },
    {
      "inputs": [
        {
          "internalType": "uint256",
          "name": "_ID",
          "type": "uint256"
        }
      ],
      "name": "setStatus",
      "outputs": [],
      "stateMutability": "nonpayable",
      "type": "function"
    },
    {
      "inputs": [
        {
          "internalType": "uint256",
          "name": "_ID",
          "type": "uint256"
        },
        {
          "internalType": "bool",
          "name": "_favorOrAgainst",
          "type": "bool"
        }
      ],
      "name": "vote",
      "outputs": [],
      "stateMutability": "nonpayable",
      "type": "function"
    }
  ],
  "bytecode": "0x608060405234801561001057600080fd5b5033600160006101000a81548173ffffffffffffffffffffffffffffffffffffffff021916908373ffffffffffffffffffffffffffffffffffffffff160217905550610b50806100616000396000f3fe608060405234801561001057600080fd5b506004361061004c5760003560e01c80633a068eec1461005157806369ba1a751461006d5780638db9805114610089578063c9d27afe146100a5575b600080fd5b61006b600480360381019061006691906106a8565b6100c1565b005b6100876004803603810190610082919061070f565b6101b7565b005b6100a3600480360381019061009e919061067f565b610319565b005b6100bf60048036038101906100ba9190610738565b6103ec565b005b6100ff6040518060400160405280601c81526020017f4e65772050726f706f73616c206973206265696e672050757368656400000000815250610501565b60008054906101000a900473ffffffffffffffffffffffffffffffffffffffff1673ffffffffffffffffffffffffffffffffffffffff166377b7c20f600160009054906101000a900473ffffffffffffffffffffffffffffffffffffffff168585856040518563ffffffff1660e01b81526004016101809493929190610869565b600060405180830381600087803b15801561019a57600080fd5b505af11580156101ae573d6000803e3d6000fd5b50505050505050565b600160009054906101000a900473ffffffffffffffffffffffffffffffffffffffff1673ffffffffffffffffffffffffffffffffffffffff163373ffffffffffffffffffffffffffffffffffffffff1614610247576040517f08c379a000000000000000000000000000000000000000000000000000000000815260040161023e906108f7565b60405180910390fd5b600081141561028b576040517f08c379a0000000000000000000000000000000000000000000000000000000008152600401610282906108d7565b60405180910390fd5b60008054906101000a900473ffffffffffffffffffffffffffffffffffffffff1673ffffffffffffffffffffffffffffffffffffffff16630cf93097826040518263ffffffff1660e01b81526004016102e49190610917565b600060405180830381600087803b1580156102fe57600080fd5b505af1158015610312573d6000803e3d6000fd5b5050505050565b600160009054906101000a900473ffffffffffffffffffffffffffffffffffffffff1673ffffffffffffffffffffffffffffffffffffffff163373ffffffffffffffffffffffffffffffffffffffff16146103a9576040517f08c379a00000000000000000000000000000000000000000000000000000000081526004016103a0906108f7565b60405180910390fd5b806000806101000a81548173ffffffffffffffffffffffffffffffffffffffff021916908373ffffffffffffffffffffffffffffffffffffffff16021790555050565b6000821415610430576040517f08c379a0000000000000000000000000000000000000000000000000000000008152600401610427906108d7565b60405180910390fd5b61046e6040518060400160405280600e81526020017f566f74696e672053746172746564000000000000000000000000000000000000815250610501565b60008054906101000a900473ffffffffffffffffffffffffffffffffffffffff1673ffffffffffffffffffffffffffffffffffffffff1663012a08f88383336040518463ffffffff1660e01b81526004016104cb93929190610932565b600060405180830381600087803b1580156104e557600080fd5b505af11580156104f9573d6000803e3d6000fd5b505050505050565b6105978160405160240161051591906108b5565b6040516020818303038152906040527f41304fac000000000000000000000000000000000000000000000000000000007bffffffffffffffffffffffffffffffffffffffffffffffffffffffff19166020820180517bffffffffffffffffffffffffffffffffffffffffffffffffffffffff838183161783525050505061059a565b50565b60008151905060006a636f6e736f6c652e6c6f679050602083016000808483855afa5050505050565b60006105d66105d18461099a565b610969565b9050828152602081018484840111156105ee57600080fd5b6105f9848285610a3c565b509392505050565b60008135905061061081610abe565b92915050565b60008135905061062581610ad5565b92915050565b600082601f83011261063c57600080fd5b813561064c8482602086016105c3565b91505092915050565b60008135905061066481610aec565b92915050565b60008135905061067981610b03565b92915050565b60006020828403121561069157600080fd5b600061069f84828501610601565b91505092915050565b6000806000606084860312156106bd57600080fd5b600084013567ffffffffffffffff8111156106d757600080fd5b6106e38682870161062b565b93505060206106f48682870161066a565b925050604061070586828701610655565b9150509250925092565b60006020828403121561072157600080fd5b600061072f8482850161066a565b91505092915050565b6000806040838503121561074b57600080fd5b60006107598582860161066a565b925050602061076a85828601610616565b9150509250929050565b61077d816109e6565b82525050565b61078c816109f8565b82525050565b600061079d826109ca565b6107a781856109d5565b93506107b7818560208601610a4b565b6107c081610aad565b840191505092915050565b60006107d86016836109d5565b91507f50726f706f73616c2049442043616e27742062652030000000000000000000006000830152602082019050919050565b6000610818600a836109d5565b91507f4f6e6c79204f776e6572000000000000000000000000000000000000000000006000830152602082019050919050565b61085481610a04565b82525050565b61086381610a32565b82525050565b600060808201905061087e6000830187610774565b81810360208301526108908186610792565b905061089f604083018561085a565b6108ac606083018461084b565b95945050505050565b600060208201905081810360008301526108cf8184610792565b905092915050565b600060208201905081810360008301526108f0816107cb565b9050919050565b600060208201905081810360008301526109108161080b565b9050919050565b600060208201905061092c600083018461085a565b92915050565b6000606082019050610947600083018661085a565b6109546020830185610783565b6109616040830184610774565b949350505050565b6000604051905081810181811067ffffffffffffffff821117156109905761098f610a7e565b5b8060405250919050565b600067ffffffffffffffff8211156109b5576109b4610a7e565b5b601f19601f8301169050602081019050919050565b600081519050919050565b600082825260208201905092915050565b60006109f182610a12565b9050919050565b60008115159050919050565b600061ffff82169050919050565b600073ffffffffffffffffffffffffffffffffffffffff82169050919050565b6000819050919050565b82818337600083830152505050565b60005b83811015610a69578082015181840152602081019050610a4e565b83811115610a78576000848401525b50505050565b7f4e487b7100000000000000000000000000000000000000000000000000000000600052604160045260246000fd5b6000601f19601f8301169050919050565b610ac7816109e6565b8114610ad257600080fd5b50565b610ade816109f8565b8114610ae957600080fd5b50565b610af581610a04565b8114610b0057600080fd5b50565b610b0c81610a32565b8114610b1757600080fd5b5056fea2646970667358221220107345d78a4963c00ff38884441dbb9c0eeea5753f4dfd634a69ef1f0c8b717564736f6c63430008000033",
  "linkReferences": {},
  "deployedLinkReferences": {}
}