{
  "_format": "hh-sol-artifact-1",
  "contractName": "Proposal",
  "sourceName": "contracts/Proposal.sol",
  "abi": [
    {
      "inputs": [
        {
          "internalType": "address",
          "name": "_owner",
          "type": "address"
        }
      ],
      "stateMutability": "nonpayable",
      "type": "constructor"
    },
    {
      "anonymous": false,
      "inputs": [
        {
          "indexed": true,
          "internalType": "address",
          "name": "",
          "type": "address"
        },
        {
          "indexed": true,
          "internalType": "uint256",
          "name": "",
          "type": "uint256"
        }
      ],
      "name": "Voted",
      "type": "event"
    },
    {
      "anonymous": false,
      "inputs": [
        {
          "indexed": true,
          "internalType": "address",
          "name": "",
          "type": "address"
        },
        {
          "indexed": true,
          "internalType": "string",
          "name": "",
          "type": "string"
        },
        {
          "indexed": true,
          "internalType": "uint256",
          "name": "",
          "type": "uint256"
        },
        {
          "indexed": false,
          "internalType": "uint256",
          "name": "",
          "type": "uint256"
        }
      ],
      "name": "newProposalEvent",
      "type": "event"
    },
    {
      "inputs": [
        {
          "internalType": "uint256",
          "name": "_id",
          "type": "uint256"
        }
      ],
      "name": "_setStatus",
      "outputs": [],
      "stateMutability": "nonpayable",
      "type": "function"
    },
    {
      "inputs": [
        {
          "internalType": "uint256",
          "name": "_id",
          "type": "uint256"
        },
        {
          "internalType": "bool",
          "name": "val",
          "type": "bool"
        },
        {
          "internalType": "address",
          "name": "voter",
          "type": "address"
        }
      ],
      "name": "_vote",
      "outputs": [],
      "stateMutability": "nonpayable",
      "type": "function"
    },
    {
      "inputs": [
        {
          "internalType": "uint256",
          "name": "_ID",
          "type": "uint256"
        }
      ],
      "name": "getProposalStatus",
      "outputs": [
        {
          "internalType": "string",
          "name": "name",
          "type": "string"
        },
        {
          "internalType": "address",
          "name": "proposer",
          "type": "address"
        },
        {
          "internalType": "enum Proposal.status",
          "name": "s",
          "type": "uint8"
        },
        {
          "internalType": "uint256",
          "name": "votesInFav",
          "type": "uint256"
        },
        {
          "internalType": "uint256",
          "name": "votesAgain",
          "type": "uint256"
        },
        {
          "internalType": "uint256",
          "name": "votesReq",
          "type": "uint256"
        }
      ],
      "stateMutability": "view",
      "type": "function"
    },
    {
      "inputs": [
        {
          "internalType": "address",
          "name": "_proposer",
          "type": "address"
        },
        {
          "internalType": "string",
          "name": "_proposalName",
          "type": "string"
        },
        {
          "internalType": "uint256",
          "name": "_deadline",
          "type": "uint256"
        },
        {
          "internalType": "uint16",
          "name": "_votesRequired",
          "type": "uint16"
        }
      ],
      "name": "newProposal",
      "outputs": [],
      "stateMutability": "nonpayable",
      "type": "function"
    },
    {
      "inputs": [],
      "name": "proposalID",
      "outputs": [
        {
          "internalType": "uint32",
          "name": "",
          "type": "uint32"
        }
      ],
      "stateMutability": "view",
      "type": "function"
    },
    {
      "inputs": [
        {
          "internalType": "uint256",
          "name": "",
          "type": "uint256"
        }
      ],
      "name": "proposals",
      "outputs": [
        {
          "internalType": "address",
          "name": "proposer",
          "type": "address"
        },
        {
          "internalType": "string",
          "name": "prop",
          "type": "string"
        },
        {
          "internalType": "uint16",
          "name": "votesReq",
          "type": "uint16"
        },
        {
          "internalType": "uint16",
          "name": "votesRecInFavour",
          "type": "uint16"
        },
        {
          "internalType": "uint16",
          "name": "votesRecAgainst",
          "type": "uint16"
        },
        {
          "internalType": "uint256",
          "name": "startTime",
          "type": "uint256"
        },
        {
          "internalType": "uint256",
          "name": "endTime",
          "type": "uint256"
        },
        {
          "internalType": "enum Proposal.status",
          "name": "s",
          "type": "uint8"
        },
        {
          "internalType": "bool",
          "name": "valid",
          "type": "bool"
        }
      ],
      "stateMutability": "view",
      "type": "function"
    }
  ],
  "bytecode": "0x60806040523480156200001157600080fd5b50604051620016d8380380620016d8833981810160405281019062000037919062000095565b806000806101000a81548173ffffffffffffffffffffffffffffffffffffffff021916908373ffffffffffffffffffffffffffffffffffffffff160217905550506200010f565b6000815190506200008f81620000f5565b92915050565b600060208284031215620000a857600080fd5b6000620000b8848285016200007e565b91505092915050565b6000620000ce82620000d5565b9050919050565b600073ffffffffffffffffffffffffffffffffffffffff82169050919050565b6200010081620000c1565b81146200010c57600080fd5b50565b6115b9806200011f6000396000f3fe608060405234801561001057600080fd5b50600436106100625760003560e01c8063012a08f814610067578063013cf08b146100835780630cf93097146100bb578063371fa854146100d7578063401853b7146100f557806377b7c20f1461012a575b600080fd5b610081600480360381019061007c9190610d2b565b610146565b005b61009d60048036038101906100989190610d02565b6103eb565b6040516100b299989796959493929190611056565b60405180910390f35b6100d560048036038101906100d09190610d02565b610525565b005b6100df61072e565b6040516100ec919061122d565b60405180910390f35b61010f600480360381019061010a9190610d02565b610744565b604051610121969594939291906110ea565b60405180910390f35b610144600480360381019061013f9190610c87565b610883565b005b60006001600085815260200190815260200160002090508060060160008373ffffffffffffffffffffffffffffffffffffffff1673ffffffffffffffffffffffffffffffffffffffff16815260200190815260200160002060009054906101000a900460ff16156101ec576040517f08c379a00000000000000000000000000000000000000000000000000000000081526004016101e3906111d2565b60405180910390fd5b60008054906101000a900473ffffffffffffffffffffffffffffffffffffffff1673ffffffffffffffffffffffffffffffffffffffff163373ffffffffffffffffffffffffffffffffffffffff161461027a576040517f08c379a000000000000000000000000000000000000000000000000000000000815260040161027190611192565b60405180910390fd5b80600401544211156102c1576040517f08c379a00000000000000000000000000000000000000000000000000000000081526004016102b890611152565b60405180910390fd5b60018160060160003373ffffffffffffffffffffffffffffffffffffffff1673ffffffffffffffffffffffffffffffffffffffff16815260200190815260200160002060006101000a81548160ff02191690831515021790555082156103635780600201600281819054906101000a900461ffff16809291906103439061141b565b91906101000a81548161ffff021916908361ffff160217905550506103a1565b80600201600481819054906101000a900461ffff16809291906103859061141b565b91906101000a81548161ffff021916908361ffff160217905550505b838273ffffffffffffffffffffffffffffffffffffffff167f4d99b957a2bc29a30ebd96a7be8e68fe50a3c701db28a91436490b7d53870ca460405160405180910390a350505050565b60016020528060005260406000206000915090508060000160009054906101000a900473ffffffffffffffffffffffffffffffffffffffff1690806001018054610434906113e9565b80601f0160208091040260200160405190810160405280929190818152602001828054610460906113e9565b80156104ad5780601f10610482576101008083540402835291602001916104ad565b820191906000526020600020905b81548152906001019060200180831161049057829003601f168201915b5050505050908060020160009054906101000a900461ffff16908060020160029054906101000a900461ffff16908060020160049054906101000a900461ffff16908060030154908060040154908060050160009054906101000a900460ff16908060050160019054906101000a900460ff16905089565b600060016000838152602001908152602001600020905060008054906101000a900473ffffffffffffffffffffffffffffffffffffffff1673ffffffffffffffffffffffffffffffffffffffff163373ffffffffffffffffffffffffffffffffffffffff16146105ca576040517f08c379a00000000000000000000000000000000000000000000000000000000081526004016105c1906111b2565b60405180910390fd5b8060040154421015610611576040517f08c379a0000000000000000000000000000000000000000000000000000000008152600401610608906111f2565b60405180910390fd5b8060020160009054906101000a900461ffff1661ffff168160020160029054906101000a900461ffff1661ffff16106106b95760008160050160016101000a81548160ff02191690831515021790555060018160050160006101000a81548160ff021916908360028111156106af577f4e487b7100000000000000000000000000000000000000000000000000000000600052602160045260246000fd5b021790555061072a565b60008160050160016101000a81548160ff02191690831515021790555060028160050160006101000a81548160ff02191690836002811115610724577f4e487b7100000000000000000000000000000000000000000000000000000000600052602160045260246000fd5b02179055505b5050565b600060149054906101000a900463ffffffff1681565b6060600080600080600080600160008981526020019081526020016000209050806001018054610773906113e9565b80601f016020809104026020016040519081016040528092919081815260200182805461079f906113e9565b80156107ec5780601f106107c1576101008083540402835291602001916107ec565b820191906000526020600020905b8154815290600101906020018083116107cf57829003601f168201915b505050505096508060000160009054906101000a900473ffffffffffffffffffffffffffffffffffffffff1695508060050160009054906101000a900460ff1694508060020160049054906101000a900461ffff1661ffff1692508060020160029054906101000a900461ffff1661ffff1693508060020160009054906101000a900461ffff1661ffff1691505091939550919395565b60008054906101000a900473ffffffffffffffffffffffffffffffffffffffff1673ffffffffffffffffffffffffffffffffffffffff163373ffffffffffffffffffffffffffffffffffffffff1614610911576040517f08c379a000000000000000000000000000000000000000000000000000000000815260040161090890611172565b60405180910390fd5b6001600060148282829054906101000a900463ffffffff1661093391906112d0565b92506101000a81548163ffffffff021916908363ffffffff1602179055506000600160008060149054906101000a900463ffffffff1663ffffffff1681526020019081526020016000209050848160000160006101000a81548173ffffffffffffffffffffffffffffffffffffffff021916908373ffffffffffffffffffffffffffffffffffffffff160217905550428160030181905550818160020160006101000a81548161ffff021916908361ffff16021790555083816001019080519060200190610a02929190610b28565b5082816004018190555060008160050160006101000a81548160ff02191690836002811115610a5a577f4e487b7100000000000000000000000000000000000000000000000000000000600052602160045260246000fd5b021790555060008160020160026101000a81548161ffff021916908361ffff16021790555060008160020160046101000a81548161ffff021916908361ffff16021790555060018160050160016101000a81548160ff0219169083151502179055508284604051610acb919061103f565b60405180910390208673ffffffffffffffffffffffffffffffffffffffff167f263f21ff16130defbada44500d50d339dc303b8055a5282693d5cda1b5f4dd8885604051610b199190611212565b60405180910390a45050505050565b828054610b34906113e9565b90600052602060002090601f016020900481019282610b565760008555610b9d565b82601f10610b6f57805160ff1916838001178555610b9d565b82800160010185558215610b9d579182015b82811115610b9c578251825591602001919060010190610b81565b5b509050610baa9190610bae565b5090565b5b80821115610bc7576000816000905550600101610baf565b5090565b6000610bde610bd984611279565b611248565b905082815260208101848484011115610bf657600080fd5b610c018482856113a7565b509392505050565b600081359050610c1881611527565b92915050565b600081359050610c2d8161153e565b92915050565b600082601f830112610c4457600080fd5b8135610c54848260208601610bcb565b91505092915050565b600081359050610c6c81611555565b92915050565b600081359050610c818161156c565b92915050565b60008060008060808587031215610c9d57600080fd5b6000610cab87828801610c09565b945050602085013567ffffffffffffffff811115610cc857600080fd5b610cd487828801610c33565b9350506040610ce587828801610c72565b9250506060610cf687828801610c5d565b91505092959194509250565b600060208284031215610d1457600080fd5b6000610d2284828501610c72565b91505092915050565b600080600060608486031215610d4057600080fd5b6000610d4e86828701610c72565b9350506020610d5f86828701610c1e565b9250506040610d7086828701610c09565b9150509250925092565b610d838161130a565b82525050565b610d928161131c565b82525050565b610da181611383565b82525050565b6000610db2826112a9565b610dbc81856112b4565b9350610dcc8185602086016113b6565b610dd581611502565b840191505092915050565b6000610deb826112a9565b610df581856112c5565b9350610e058185602086016113b6565b80840191505092915050565b6000610e1e601b836112b4565b91507f43616e277420566f74652c20566f74696e67206973204f7665722000000000006000830152602082019050919050565b6000610e5e6040836112b4565b91507f4e6f74204f776e65722c20552063616e20637265617465206e65772070726f7060008301527f6f73616c206f6e6c79207669612020476f7665726e657220436f6e74726163746020830152604082019050919050565b6000610ec46031836112b4565b91507f4e6f74204f776e65722c20552063616e20766f7465206f6e6c7920766961202060008301527f476f7665726e657220436f6e74726163740000000000000000000000000000006020830152604082019050919050565b6000610f2a6027836112b4565b91507f4e6f74204f776e65722c204f6e6c7920476f7665726e65722043616e2053657460008301527f20537461747573000000000000000000000000000000000000000000000000006020830152604082019050919050565b6000610f90601a836112b4565b91507f20416c726561647920566f746564206f6e2050726f706f73616c0000000000006000830152602082019050919050565b6000610fd0601c836112b4565b91507f43616e27742053657420566f74696e67207374696c6c20676f696e67000000006000830152602082019050919050565b61100c8161133b565b82525050565b61101b81611395565b82525050565b61102a81611369565b82525050565b61103981611373565b82525050565b600061104b8284610de0565b915081905092915050565b60006101208201905061106c600083018c610d7a565b818103602083015261107e818b610da7565b905061108d604083018a611003565b61109a6060830189611003565b6110a76080830188611003565b6110b460a0830187611021565b6110c160c0830186611021565b6110ce60e0830185610d98565b6110dc610100830184610d89565b9a9950505050505050505050565b600060c08201905081810360008301526111048189610da7565b90506111136020830188610d7a565b6111206040830187610d98565b61112d6060830186611021565b61113a6080830185611021565b61114760a0830184611021565b979650505050505050565b6000602082019050818103600083015261116b81610e11565b9050919050565b6000602082019050818103600083015261118b81610e51565b9050919050565b600060208201905081810360008301526111ab81610eb7565b9050919050565b600060208201905081810360008301526111cb81610f1d565b9050919050565b600060208201905081810360008301526111eb81610f83565b9050919050565b6000602082019050818103600083015261120b81610fc3565b9050919050565b60006020820190506112276000830184611012565b92915050565b60006020820190506112426000830184611030565b92915050565b6000604051905081810181811067ffffffffffffffff8211171561126f5761126e6114d3565b5b8060405250919050565b600067ffffffffffffffff821115611294576112936114d3565b5b601f19601f8301169050602081019050919050565b600081519050919050565b600082825260208201905092915050565b600081905092915050565b60006112db82611373565b91506112e683611373565b92508263ffffffff038211156112ff576112fe611446565b5b828201905092915050565b600061131582611349565b9050919050565b60008115159050919050565b600081905061133682611513565b919050565b600061ffff82169050919050565b600073ffffffffffffffffffffffffffffffffffffffff82169050919050565b6000819050919050565b600063ffffffff82169050919050565b600061138e82611328565b9050919050565b60006113a08261133b565b9050919050565b82818337600083830152505050565b60005b838110156113d45780820151818401526020810190506113b9565b838111156113e3576000848401525b50505050565b6000600282049050600182168061140157607f821691505b60208210811415611415576114146114a4565b5b50919050565b60006114268261133b565b915061ffff82141561143b5761143a611446565b5b600182019050919050565b7f4e487b7100000000000000000000000000000000000000000000000000000000600052601160045260246000fd5b7f4e487b7100000000000000000000000000000000000000000000000000000000600052602160045260246000fd5b7f4e487b7100000000000000000000000000000000000000000000000000000000600052602260045260246000fd5b7f4e487b7100000000000000000000000000000000000000000000000000000000600052604160045260246000fd5b6000601f19601f8301169050919050565b6003811061152457611523611475565b5b50565b6115308161130a565b811461153b57600080fd5b50565b6115478161131c565b811461155257600080fd5b50565b61155e8161133b565b811461156957600080fd5b50565b61157581611369565b811461158057600080fd5b5056fea26469706673582212209087a8cc7b856791526f9e02d7252a8ef82fa117409ef4e29018ba666a1d6bab64736f6c63430008000033",
  "linkReferences": {},
  "deployedLinkReferences": {}
}